{
  "_format": "hh-sol-artifact-1",
  "contractName": "Vault",
  "sourceName": "contracts/vault.sol",
  "abi": [
    {
      "inputs": [],
      "stateMutability": "nonpayable",
      "type": "constructor"
    },
    {
      "inputs": [
        {
          "internalType": "uint256",
          "name": "_id",
          "type": "uint256"
        }
      ],
      "name": "RevertGrant",
      "outputs": [],
      "stateMutability": "nonpayable",
      "type": "function"
    },
    {
      "inputs": [
        {
          "internalType": "uint256",
          "name": "",
          "type": "uint256"
        }
      ],
      "name": "_beneficiaryProperties",
      "outputs": [
        {
          "internalType": "uint256",
          "name": "amountAllocated",
          "type": "uint256"
        },
        {
          "internalType": "address",
          "name": "beneficiary",
          "type": "address"
        },
        {
          "internalType": "uint256",
          "name": "time",
          "type": "uint256"
        },
        {
          "internalType": "bool",
          "name": "status",
          "type": "bool"
        }
      ],
      "stateMutability": "view",
      "type": "function"
    },
    {
      "inputs": [
        {
          "internalType": "address",
          "name": "_beneficiary",
          "type": "address"
        },
        {
          "internalType": "uint256",
          "name": "_time",
          "type": "uint256"
        }
      ],
      "name": "createGrant",
      "outputs": [
        {
          "internalType": "uint256",
          "name": "",
          "type": "uint256"
        }
      ],
      "stateMutability": "payable",
      "type": "function"
    },
    {
      "inputs": [],
      "name": "getAllBeneficiary",
      "outputs": [
        {
          "components": [
            {
              "internalType": "uint256",
              "name": "amountAllocated",
              "type": "uint256"
            },
            {
              "internalType": "address",
              "name": "beneficiary",
              "type": "address"
            },
            {
              "internalType": "uint256",
              "name": "time",
              "type": "uint256"
            },
            {
              "internalType": "bool",
              "name": "status",
              "type": "bool"
            }
          ],
          "internalType": "struct Vault.BeneficiaryProperties[]",
          "name": "_bp",
          "type": "tuple[]"
        }
      ],
      "stateMutability": "view",
      "type": "function"
    },
    {
      "inputs": [],
      "name": "getBalance",
      "outputs": [
        {
          "internalType": "uint256",
          "name": "bal",
          "type": "uint256"
        }
      ],
      "stateMutability": "view",
      "type": "function"
    },
    {
      "inputs": [],
      "name": "owner",
      "outputs": [
        {
          "internalType": "address",
          "name": "",
          "type": "address"
        }
      ],
      "stateMutability": "view",
      "type": "function"
    },
    {
      "inputs": [
        {
          "internalType": "uint256",
          "name": "_id",
          "type": "uint256"
        }
      ],
      "name": "returnBeneficiaryInfo",
      "outputs": [
        {
          "components": [
            {
              "internalType": "uint256",
              "name": "amountAllocated",
              "type": "uint256"
            },
            {
              "internalType": "address",
              "name": "beneficiary",
              "type": "address"
            },
            {
              "internalType": "uint256",
              "name": "time",
              "type": "uint256"
            },
            {
              "internalType": "bool",
              "name": "status",
              "type": "bool"
            }
          ],
          "internalType": "struct Vault.BeneficiaryProperties",
          "name": "BP",
          "type": "tuple"
        }
      ],
      "stateMutability": "view",
      "type": "function"
    },
    {
      "inputs": [
        {
          "internalType": "uint256",
          "name": "_id",
          "type": "uint256"
        },
        {
          "internalType": "uint256",
          "name": "_amountToWithdraw",
          "type": "uint256"
        }
      ],
      "name": "withDrawAmount",
      "outputs": [],
      "stateMutability": "nonpayable",
      "type": "function"
    }
  ],
  "bytecode": "0x60806040526001805534801561001457600080fd5b50336000806101000a81548173ffffffffffffffffffffffffffffffffffffffff021916908373ffffffffffffffffffffffffffffffffffffffff160217905550611337806100646000396000f3fe60806040526004361061007b5760003560e01c80638da5cb5b1161004e5780638da5cb5b1461012f578063cd8077941461015a578063e318ef1b14610183578063e4598d64146101c05761007b565b806312065fe0146100805780633dce2b46146100ab57806375e92f4f146100db5780637bad2c0d14610104575b600080fd5b34801561008c57600080fd5b50610095610200565b6040516100a29190610b0a565b60405180910390f35b6100c560048036038101906100c09190610bb4565b610208565b6040516100d29190610b0a565b60405180910390f35b3480156100e757600080fd5b5061010260048036038101906100fd9190610bf4565b6103b4565b005b34801561011057600080fd5b506101196106ad565b6040516101269190610d71565b60405180910390f35b34801561013b57600080fd5b5061014461085a565b6040516101519190610da2565b60405180910390f35b34801561016657600080fd5b50610181600480360381019061017c9190610dbd565b61087e565b005b34801561018f57600080fd5b506101aa60048036038101906101a59190610dbd565b6109a2565b6040516101b79190610e3f565b60405180910390f35b3480156101cc57600080fd5b506101e760048036038101906101e29190610dbd565b610a54565b6040516101f79493929190610e69565b60405180910390f35b600047905090565b60008060009054906101000a900473ffffffffffffffffffffffffffffffffffffffff1673ffffffffffffffffffffffffffffffffffffffff163373ffffffffffffffffffffffffffffffffffffffff1614610299576040517f08c379a000000000000000000000000000000000000000000000000000000000815260040161029090610f0b565b60405180910390fd5b600034116102dc576040517f08c379a00000000000000000000000000000000000000000000000000000000081526004016102d390610f77565b60405180910390fd5b600060036000600154815260200190815260200160002090506001836103029190610fc6565b4261030d9190611020565b8160020181905550348160000181905550838160010160006101000a81548173ffffffffffffffffffffffffffffffffffffffff021916908373ffffffffffffffffffffffffffffffffffffffff160217905550600060015490506002819080600181540180825580915050600190039060005260206000200160009091909190915055600160008154809291906103a490611076565b9190505550809250505092915050565b81600060036000838152602001908152602001600020604051806080016040529081600082015481526020016001820160009054906101000a900473ffffffffffffffffffffffffffffffffffffffff1673ffffffffffffffffffffffffffffffffffffffff1673ffffffffffffffffffffffffffffffffffffffff168152602001600282015481526020016003820160009054906101000a900460ff161515151581525050905080604001514210156104a3576040517f08c379a000000000000000000000000000000000000000000000000000000000815260040161049a9061110b565b60405180910390fd5b600060036000868152602001908152602001600020905060008160010160009054906101000a900473ffffffffffffffffffffffffffffffffffffffff1690503373ffffffffffffffffffffffffffffffffffffffff168173ffffffffffffffffffffffffffffffffffffffff1614610551576040517f08c379a000000000000000000000000000000000000000000000000000000000815260040161054890611177565b60405180910390fd5b6000826000015490506000811161059d576040517f08c379a0000000000000000000000000000000000000000000000000000000008152600401610594906111e3565b60405180910390fd5b478611156105e0576040517f08c379a00000000000000000000000000000000000000000000000000000000081526004016105d79061124f565b60405180910390fd5b8086101561064a57600086826105f6919061126f565b90508084600001819055508273ffffffffffffffffffffffffffffffffffffffff166108fc889081150290604051600060405180830381858888f19350505050158015610647573d6000803e3d6000fd5b50505b808614156106a457600083600001819055508173ffffffffffffffffffffffffffffffffffffffff166108fc829081150290604051600060405180830381858888f193505050501580156106a2573d6000803e3d6000fd5b505b50505050505050565b6060600060028054806020026020016040519081016040528092919081815260200182805480156106fd57602002820191906000526020600020905b8154815260200190600101908083116106e9575b50505050509050805167ffffffffffffffff81111561071f5761071e6112a3565b5b60405190808252806020026020018201604052801561075857816020015b610745610ab1565b81526020019060019003908161073d5790505b50915060005b8151811015610855576003600083838151811061077e5761077d6112d2565b5b60200260200101518152602001908152602001600020604051806080016040529081600082015481526020016001820160009054906101000a900473ffffffffffffffffffffffffffffffffffffffff1673ffffffffffffffffffffffffffffffffffffffff1673ffffffffffffffffffffffffffffffffffffffff168152602001600282015481526020016003820160009054906101000a900460ff161515151581525050838281518110610837576108366112d2565b5b6020026020010181905250808061084d90611076565b91505061075e565b505090565b60008054906101000a900473ffffffffffffffffffffffffffffffffffffffff1681565b60008054906101000a900473ffffffffffffffffffffffffffffffffffffffff1673ffffffffffffffffffffffffffffffffffffffff163373ffffffffffffffffffffffffffffffffffffffff161461090c576040517f08c379a000000000000000000000000000000000000000000000000000000000815260040161090390610f0b565b60405180910390fd5b60006003600083815260200190815260200160002090506000816000015490506000826000018190555060008054906101000a900473ffffffffffffffffffffffffffffffffffffffff1673ffffffffffffffffffffffffffffffffffffffff166108fc829081150290604051600060405180830381858888f1935050505015801561099c573d6000803e3d6000fd5b50505050565b6109aa610ab1565b60036000838152602001908152602001600020604051806080016040529081600082015481526020016001820160009054906101000a900473ffffffffffffffffffffffffffffffffffffffff1673ffffffffffffffffffffffffffffffffffffffff1673ffffffffffffffffffffffffffffffffffffffff168152602001600282015481526020016003820160009054906101000a900460ff1615151515815250509050919050565b60036020528060005260406000206000915090508060000154908060010160009054906101000a900473ffffffffffffffffffffffffffffffffffffffff16908060020154908060030160009054906101000a900460ff16905084565b604051806080016040528060008152602001600073ffffffffffffffffffffffffffffffffffffffff168152602001600081526020016000151581525090565b6000819050919050565b610b0481610af1565b82525050565b6000602082019050610b1f6000830184610afb565b92915050565b600080fd5b600073ffffffffffffffffffffffffffffffffffffffff82169050919050565b6000610b5582610b2a565b9050919050565b610b6581610b4a565b8114610b7057600080fd5b50565b600081359050610b8281610b5c565b92915050565b610b9181610af1565b8114610b9c57600080fd5b50565b600081359050610bae81610b88565b92915050565b60008060408385031215610bcb57610bca610b25565b5b6000610bd985828601610b73565b9250506020610bea85828601610b9f565b9150509250929050565b60008060408385031215610c0b57610c0a610b25565b5b6000610c1985828601610b9f565b9250506020610c2a85828601610b9f565b9150509250929050565b600081519050919050565b600082825260208201905092915050565b6000819050602082019050919050565b610c6981610af1565b82525050565b610c7881610b4a565b82525050565b60008115159050919050565b610c9381610c7e565b82525050565b608082016000820151610caf6000850182610c60565b506020820151610cc26020850182610c6f565b506040820151610cd56040850182610c60565b506060820151610ce86060850182610c8a565b50505050565b6000610cfa8383610c99565b60808301905092915050565b6000602082019050919050565b6000610d1e82610c34565b610d288185610c3f565b9350610d3383610c50565b8060005b83811015610d64578151610d4b8882610cee565b9750610d5683610d06565b925050600181019050610d37565b5085935050505092915050565b60006020820190508181036000830152610d8b8184610d13565b905092915050565b610d9c81610b4a565b82525050565b6000602082019050610db76000830184610d93565b92915050565b600060208284031215610dd357610dd2610b25565b5b6000610de184828501610b9f565b91505092915050565b608082016000820151610e006000850182610c60565b506020820151610e136020850182610c6f565b506040820151610e266040850182610c60565b506060820151610e396060850182610c8a565b50505050565b6000608082019050610e546000830184610dea565b92915050565b610e6381610c7e565b82525050565b6000608082019050610e7e6000830187610afb565b610e8b6020830186610d93565b610e986040830185610afb565b610ea56060830184610e5a565b95945050505050565b600082825260208201905092915050565b7f6e6f74206f776e65720000000000000000000000000000000000000000000000600082015250565b6000610ef5600983610eae565b9150610f0082610ebf565b602082019050919050565b60006020820190508181036000830152610f2481610ee8565b9050919050565b7f7a65726f206574686572206e6f7420616c6c6f77656400000000000000000000600082015250565b6000610f61601683610eae565b9150610f6c82610f2b565b602082019050919050565b60006020820190508181036000830152610f9081610f54565b9050919050565b7f4e487b7100000000000000000000000000000000000000000000000000000000600052601160045260246000fd5b6000610fd182610af1565b9150610fdc83610af1565b9250817fffffffffffffffffffffffffffffffffffffffffffffffffffffffffffffffff048311821515161561101557611014610f97565b5b828202905092915050565b600061102b82610af1565b915061103683610af1565b9250827fffffffffffffffffffffffffffffffffffffffffffffffffffffffffffffffff0382111561106b5761106a610f97565b5b828201905092915050565b600061108182610af1565b91507fffffffffffffffffffffffffffffffffffffffffffffffffffffffffffffffff8214156110b4576110b3610f97565b5b600182019050919050565b7f74696d65206e6576657220726561636800000000000000000000000000000000600082015250565b60006110f5601083610eae565b9150611100826110bf565b602082019050919050565b60006020820190508181036000830152611124816110e8565b9050919050565b7f6e6f7420612062656e656669636961727920666f722061206772616e74000000600082015250565b6000611161601d83610eae565b915061116c8261112b565b602082019050919050565b6000602082019050818103600083015261119081611154565b9050919050565b7f796f75202068617665206e6f206d6f6e65792100000000000000000000000000600082015250565b60006111cd601383610eae565b91506111d882611197565b602082019050919050565b600060208201905081810360008301526111fc816111c0565b9050919050565b7f696e73756666696369656e7420616d6f756e7420696e20636f6e747261637400600082015250565b6000611239601f83610eae565b915061124482611203565b602082019050919050565b600060208201905081810360008301526112688161122c565b9050919050565b600061127a82610af1565b915061128583610af1565b92508282101561129857611297610f97565b5b828203905092915050565b7f4e487b7100000000000000000000000000000000000000000000000000000000600052604160045260246000fd5b7f4e487b7100000000000000000000000000000000000000000000000000000000600052603260045260246000fdfea2646970667358221220eb19f20ab6933e008251330a068822e01670bfb49c5e49f189140a586804708d64736f6c63430008090033",
  "linkReferences": {},
  "deployedLinkReferences": {}
}